:020000040800F2
:10000000000002201D21000865210008652100086C
:100010006521000865210008652100080000000036
:100020000000000000000000000000006521000842
:100030006521000800000000652100086521000816
:100040006521000865210008652100086521000878
:100050006521000865210008652100086521000868
:100060006521000865210008652100086521000858
:100070006521000865210008652100086521000848
:100080006521000865210008652100086521000838
:100090006521000865210008652100086521000828
:1000A0006521000865210008652100086521000818
:1000B0006521000865210008652100086521000808
:1000C00065210008652100086521000865210008F8
:1000D00065210008652100086521000865210008E8
:1000E00065210008652100086521000865210008D8
:1000F00065210008652100086521000865210008C8
:1001000065210008652100086521000865210008B7
:1001100065210008652100086521000865210008A7
:100120006521000865210008652100086521000897
:100130006521000865210008652100086521000887
:100140006521000865210008652100086521000877
:100150006521000865210008652100086521000867
:100160006521000865210008652100086521000857
:100170006521000865210008652100086521000847
:0801800065210008652100085B
:1001C00010B5054C237833B9044B13B10448AFF391
:1001D00000800123237010BD5404002000000000A3
:1001E0009022000808B5034B1BB103490348AFF345
:1001F000008008BD00000000580400209022000884
:1002000080B485B000AF786009E042F21073FB6003
:1002100002E0FB68013BFB60FB68002BF9D17B68C7
:100220005A1E7A60002BF0D100BF1437BD4680BC47
:10023000704780B582B000AF0121012000F0C4FEFC
:1002400001233B710023BB714FF480733B6001239A
:10025000FB7100237B713B461946064800F042F9CA
:100260004FF48071034800F05DFA00BF0837BD46C7
:1002700080BD00BF0000024080B586B000AF012104
:10028000012000F0A1FE0121102000F015FF07223F
:100290000921164800F08CFA07220A21134800F0C1
:1002A00087FA4FF4C0633B6102233B7502237B75E1
:1002B0000023BB750123FB7507F1100319460B489A
:1002C00000F010F93B46184601F03AFA4FF4E133DA
:1002D0003B603B461946064801F078F90121044885
:1002E00001F089FA00BF1837BD4680BD000002400A
:1002F0000010014080B584B000AF7860786801F0EC
:100300009FFE0346BB604FF48071134800F00AFA69
:100310000023FB6013E0FB687A6813441B789BB2F0
:1003200019460E4801F0E2FA00BF80210B4801F0A7
:10033000BCFC0346002BF8D0FB680133FB60FA6875
:10034000BB689A42E7DB4FF48071034800F0DCF9A8
:1003500000BF1037BD4680BD0000024000100140C4
:1003600080B500AFFFF765FFFFF786FF0348FFF793
:10037000C1FF4FF47A70FFF743FFF7E7A8220008A8
:1003800080B582B000AF78607B684B4A934208D159
:100390000121012000F0AEFE0021012000F0AAFEA4
:1003A00086E07B68454A934208D10121022000F093
:1003B000A1FE0021022000F09DFE79E07B68404A0A
:1003C000934208D10121042000F094FE0021042072
:1003D00000F090FE6CE07B683A4A934208D101211C
:1003E000082000F087FE0021082000F083FE5FE077
:1003F0007B68354A934208D10121102000F07AFE33
:100400000021102000F076FE52E07B682F4A9342D4
:1004100008D10121202000F06DFE0021202000F0F5
:1004200069FE45E07B682A4A934208D101214020B9
:1004300000F060FE0021402000F05CFE38E07B68A8
:10044000244A934208D10121802000F053FE00216C
:10045000802000F04FFE2BE07B681F4A93420AD1B8
:1004600001214FF4807000F045FE00214FF48070B0
:1004700000F040FE1CE07B68184A93420AD101213B
:100480004FF4007000F036FE00214FF4007000F0D1
:1004900031FE0DE07B68124A934209D101214FF4ED
:1004A000806000F027FE00214FF4806000F022FE03
:1004B00000BF0837BD4680BD000002400004024076
:1004C00000080240000C02400010024000140240EC
:1004D00000180240001C024000200240002402409C
:1004E0000028024080B487B000AF786039600023F4
:1004F0007B6100233B610023FB6000237B6176E08E
:1005000001227B6902FA03F33B613B681B683A698D
:100510001340FB60FA683B699A4265D17B681A68B0
:100520007B695B00032101FA03F3DB431A407B681C
:100530001A607B681A683B681B7919467B695B0007
:1005400001FA03F31A437B681A603B681B79012B9D
:1005500003D03B681B79022B2ED17B689A687B699C
:100560005B00032101FA03F3DB431A407B689A60C6
:100570007B689A683B685B7919467B695B0001FA86
:1005800003F31A437B689A607B685A687B699BB265
:10059000194601238B40DB431A407B685A607B6815
:1005A0005B683A68927911467A6992B201FA02F26E
:1005B00092B21A437B685A607B68DA687B699BB2A7
:1005C0005B00032101FA03F3DB431A407B68DA6026
:1005D0007B68DA683B68DB7919467B695B0001FA66
:1005E00003F31A437B68DA607B6901337B617B69C3
:1005F0000F2B85D900BF00BF1C37BD4680BC70479C
:1006000080B483B000AF78607B684FF6FF721A60E9
:100610007B6800221A717B6800225A717B68002275
:100620009A717B680022DA7100BF0C37BD4680BC2E
:10063000704780B485B000AF78600B467B804FF484
:100640008033FB607A88FB681343FB60FA687B6841
:10065000DA617A887B68DA61FA687B68DA617B68DC
:10066000DB69FB607B68DB69FB6000BF1437BD465C
:1006700080BC704780B485B000AF78600B467B804B
:100680000023FB737B681A697B881340002B02D020
:100690000123FB7301E00023FB73FB7B1846143737
:1006A000BD4680BC704780B483B000AF78607B6883
:1006B0001B699BB218460C37BD4680BC704780B49E
:1006C00085B000AF78600B467B800023FB737B68AE
:1006D0005A697B881340002B02D00123FB7301E091
:1006E0000023FB73FB7B18461437BD4680BC704764
:1006F00080B483B000AF78607B685B699BB21846BA
:100700000C37BD4680BC704780B483B000AF7860C2
:100710000B467B807A887B689A6100BF0C37BD46A8
:1007200080BC704780B483B000AF78600B467B809C
:100730007B881A047B689A6100BF0C37BD4680BC79
:10074000704780B483B000AF78600B467B8013465F
:100750007B707B78002B03D07A887B689A6103E0FA
:100760007B881A047B689A6100BF0C37BD4680BC49
:10077000704780B483B000AF78600B467B807A8886
:100780007B685A6100BF0C37BD4680BC704780B49F
:1007900083B000AF78600B467B807B685A697B88AA
:1007A0005A407B685A6100BF0C37BD4680BC704719
:1007B00080B485B000AF78600B467B8013467B70B9
:1007C0000023FB600023BB607A787B8803F007037B
:1007D0009B0002FA03F3FB607B88DB089BB21A469E
:1007E0007B68083253F822207B8803F007039B00C4
:1007F0000F2101FA03F3DB437988C90889B208465F
:1008000002EA03017B6800F1080243F822107B88AA
:10081000DB089BB21A467B68083253F82230FA682C
:100820001343BB607B88DB089BB21A467B680832A7
:10083000B96843F8221000BF1437BD4680BC70472A
:1008400080B400AF164B1B68154A43F001031360D8
:10085000134B00229A60124B1B68114A23F0A853D5
:1008600023F4102313600E4B0E4A5A600C4B0E4AB1
:10087000C3F884200A4B0D4AC3F88820084B1B6834
:10088000074A23F480231360054B0022DA60044BEF
:100890000022C3F88C2000BFBD4680BC704700BF5B
:1008A00000380240103000240030002000300024C6
:1008B00080B483B000AF0346FB71054B00221A7071
:1008C000034AFB79137000BF0C37BD4680BC7047EC
:1008D0000238024080B582B000AF00233B600023A5
:1008E000FB710023BB71312000F072FD0346BB7128
:1008F0003B6801333B603B68B3F5A04F02D0BB7946
:10090000002BF0D0312000F063FD0346002B02D015
:100910000123FB7101E00023FB71FB7918460837C6
:10092000BD4680BD80B485B000AF0346FB71002397
:10093000FB600A4B1B68FB60FB6823F0F803FB605D
:10094000FB79DB00FA681343FB60044AFB68136021
:1009500000BF1437BD4680BC704700BF003802405E
:1009600080B483B000AF0346FB71044AFB79136087
:1009700000BF0C37BD4680BC704700BF0000474237
:1009800080B483B000AF0346FB710C4B00221A7099
:100990000A4B00221A70FB79012B02D0042B04D0E1
:1009A00007E0064B01221A7003E0044B05221A707F
:1009B00000BF00BF0C37BD4680BC70477038024096
:1009C00080B483B000AF0346FB71044AFB79136027
:1009D00000BF0C37BD4680BC704700BF800E474249
:1009E00080B485B000AFF860B9607A603B607B6826
:1009F0009A01BB681A433B685B08013B1B041A431E
:100A0000FB681A43BB691B06034913434B6000BFD5
:100A10001437BD4680BC70470038024080B483B0B4
:100A200000AF0346FB71044AFB79136000BF0C372B
:100A3000BD4680BC704700BF6000474280B483B0B1
:100A400000AF786039607B689A013B681B070449F6
:100A50001343C1F8843000BF0C37BD4680BC7047DB
:100A60000038024080B483B000AF0346FB71044AF3
:100A7000FB79136000BF0C37BD4680BC704700BFD8
:100A80006800474280B485B000AFF860B9607A6012
:100A9000FB689A01BB681B061A437B681B07044965
:100AA0001343C1F8883000BF1437BD4680BC70477F
:100AB0000038024080B483B000AF0346FB71044AA3
:100AC000FB79136000BF0C37BD4680BC704700BF88
:100AD0007000474280B483B000AF0346FB71044A04
:100AE000FB79136000BF0C37BD4680BC704700BF68
:100AF0004C00474280B485B000AF78603960002375
:100B0000FB600A4B9B68FB60FB6823F0EC63FB60B7
:100B10007A683B681343FA681343FB60034AFB6837
:100B2000936000BF1437BD4680BC70470038024058
:100B300080B485B000AF786039600023FB600A4B59
:100B40009B68FB60FB6823F07843FB607A683B6836
:100B50001343FA681343FB60034AFB68936000BFCA
:100B60001437BD4680BC70470038024080B485B061
:100B700000AF78600023FB60094B9B68FB60FB685B
:100B800023F00303FB60FA687B681343FB60044AAD
:100B9000FB68936000BF1437BD4680BC704700BF40
:100BA0000038024080B400AF044B9B68DBB203F016
:100BB0000C03DBB21846BD4680BC704700380240CB
:100BC00080B485B000AF78600023FB60094B9B6860
:100BD000FB60FB6823F0F003FB60FA687B6813435B
:100BE000FB60044AFB68936000BF1437BD4680BCBD
:100BF000704700BF0038024080B485B000AF786015
:100C00000023FB60094B9B68FB60FB6823F4E05307
:100C1000FB60FA687B681343FB60044AFB689360DF
:100C200000BF1437BD4680BC704700BF003802408B
:100C300080B485B000AF78600023FB60094B9B68EF
:100C4000FB60FB6823F46043FB607B68DB00FA68B1
:100C50001343FB60034AFB68936000BF1437BD4633
:100C600080BC70470038024080B489B000AF786023
:100C70000023BB6100237B610023FB6102233B61F6
:100C80000023FB600223BB604A4B9B6803F00C030C
:100C9000BB61BB69082B11D0BB69082B44D8BB6969
:100CA000002B03D0BB69042B04D03DE07B68424A93
:100CB0001A603DE07B68414A1A6039E03D4B5B6851
:100CC0009B0D03F00103FB603A4B5B6803F03F03AD
:100CD000BB60FB68002B0CD0384ABB68B2FBF3F357
:100CE000344A52689209C2F3080202FB03F3FB6123
:100CF0000BE0314ABB68B2FBF3F32E4A526892090B
:100D0000C2F3080202FB03F3FB612A4B5B681B0C76
:100D100003F0030301335B003B61FA693B69B2FBFB
:100D2000F3F27B681A6003E07B68234A1A6000BF15
:100D3000204B9B6803F0F003BB61BB691B09BB61DF
:100D40001F4ABB6913441B78DBB27B617B681A685E
:100D50007B69DA407B685A60164B9B6803F4E0536A
:100D6000BB61BB699B0ABB61154ABB6913441B7815
:100D7000DBB27B617B685A687B69DA407B689A608A
:100D80000C4B9B6803F46043BB61BB695B0BBB61AD
:100D90000B4ABB6913441B78DBB27B617B685A68E2
:100DA0007B69DA407B68DA6000BF2437BD4680BCCF
:100DB000704700BF003802400024F40000127A009F
:100DC0000000002080B485B000AF78600023FB6095
:100DD0007B6803F44073B3F5407F11D10F4B9B68E0
:100DE000FB60FB6823F4F813FB607B6823F070431F
:100DF00023F44073FA681343FB60084AFB6893606E
:100E0000064B1A6F7B68C3F30B03044913430B674C
:100E100000BF1437BD4680BC704700BF0038024099
:100E200080B483B000AF0346FB71044AFB791360C2
:100E300000BF0C37BD4680BC704700BF3C0E474228
:100E400080B483B000AF0346FB71044AFB791360A2
:100E500000BF0C37BD4680BC704700BF400E474204
:100E600080B483B000AF7860034A7B68136000BF32
:100E70000C37BD4680BC70475C01474280B485B0EA
:100E800000AF78600023FB600A4BD3F88C30FB6026
:100E9000FB6823F44013FB60FA687B681343FB6034
:100EA000044AFB68C2F88C3000BF1437BD4680BCD2
:100EB000704700BF0038024080B485B000AF786052
:100EC0000023FB600A4BD3F88C30FB60FB6823F4F3
:100ED0004003FB60FA687B681343FB60044AFB68CD
:100EE000C2F88C3000BF1437BD4680BC704700BFCD
:100EF0000038024080B485B000AF78600023FB600A
:100F00000A4BD3F88C30FB60FB6823F01F03FB60B7
:100F10007B68013BFA681343FB60044AFB68C2F834
:100F20008C3000BF1437BD4680BC7047003802408B
:100F300080B485B000AF78600023FB600B4BD3F822
:100F40008C30FB60FB6823F4F853FB607B68013B4B
:100F50001B02FA681343FB60044AFB68C2F88C303A
:100F600000BF1437BD4680BC704700BF0038024048
:100F700080B485B000AF78600023FB600A4BD3F8E3
:100F80008C30FB60FB6823F44033FB60FA687B68BD
:100F90001343FB60044AFB68C2F88C3000BF14376F
:100FA000BD4680BC704700BF0038024080B483B0AB
:100FB00000AF7860034A7B68136000BF0C37BD4602
:100FC00080BC7047E011474280B483B000AF7860C6
:100FD0000B46FB70FB78002B06D0094B1A6B0849B7
:100FE0007B6813430B6306E0054B1A6B7B68DB439E
:100FF000034913400B6300BF0C37BD4680BC7047EC
:101000000038024080B483B000AF78600B46FB70BC
:10101000FB78002B06D0094B5A6B08497B681343B9
:101020004B6306E0054B5A6B7B68DB430349134077
:101030004B6300BF0C37BD4680BC70470038024090
:1010400080B483B000AF78600B46FB70FB78002B58
:1010500006D0094B9A6B08497B6813438B6306E003
:10106000054B9A6B7B68DB43034913408B6300BFDE
:101070000C37BD4680BC70470038024080B483B056
:1010800000AF78600B46FB70FB78002B06D0094B55
:101090001A6C08497B6813430B6406E0054B1A6C15
:1010A0007B68DB43034913400B6400BF0C37BD462C
:1010B00080BC70470038024080B483B000AF7860D5
:1010C0000B46FB70FB78002B06D0094B5A6C084985
:1010D0007B6813434B6406E0054B5A6C7B68DB432B
:1010E000034913404B6400BF0C37BD4680BC7047BA
:1010F0000038024080B483B000AF78600B46FB70CC
:10110000FB78002B06D0094B1A6908497B6813430A
:101110000B6106E0054B1A697B68DB43034913400A
:101120000B6100BF0C37BD4680BC704700380240E1
:1011300080B483B000AF78600B46FB70FB78002B67
:1011400006D0094B5A6908497B6813434B6106E096
:10115000054B5A697B68DB43034913404B6100BF71
:101160000C37BD4680BC70470038024080B483B065
:1011700000AF78600B46FB70FB78002B06D0094B64
:101180009A6908497B6813438B6106E0054B9A69AD
:101190007B68DB43034913408B6100BF0C37BD46BE
:1011A00080BC70470038024080B483B000AF7860E4
:1011B0000B46FB70FB78002B06D0094B1A6A0849D6
:1011C0007B6813430B6206E0054B1A6A7B68DB43BE
:1011D000034913400B6200BF0C37BD4680BC70470B
:1011E0000038024080B483B000AF78600B46FB70DB
:1011F000FB78002B06D0094B5A6A08497B681343D9
:101200004B6206E0054B5A6A7B68DB430349134097
:101210004B6200BF0C37BD4680BC704700380240AF
:1012200080B483B000AF78600B46FB70FB78002B76
:1012300006D0094B1A6D08497B6813430B6506E01D
:10124000054B1A6D7B68DB43034913400B6500BFF8
:101250000C37BD4680BC70470038024080B483B074
:1012600000AF78600B46FB70FB78002B06D0094B73
:101270005A6D08497B6813434B6506E0054B5A6D70
:101280007B68DB43034913404B6500BF0C37BD4609
:1012900080BC70470038024080B483B000AF7860F3
:1012A0000B46FB70FB78002B06D0094B9A6D084962
:1012B0007B6813438B6506E0054B9A6D7B68DB43C7
:1012C000034913408B6500BF0C37BD4680BC704797
:1012D0000038024080B483B000AF78600B46FB70EA
:1012E000FB78002B06D0094B1A6E08497B68134324
:1012F0000B6606E0054B1A6E7B68DB43034913401F
:101300000B6600BF0C37BD4680BC704700380240FA
:1013100080B483B000AF78600B46FB70FB78002B85
:1013200006D0094B5A6E08497B6813434B6606E0AA
:10133000054B5A6E7B68DB43034913404B6600BF85
:101340000C37BD4680BC70470038024080B483B083
:1013500000AF0346FB71FB79012B06D1084B1B6FD5
:10136000074A43F00803136705E0054B1B6F044A67
:1013700023F00803136700BF0C37BD4680BC7047DD
:101380000038024080B483B000AF03460A46FB71C8
:101390001346BB71BB79002B08D00C4B1B78DAB21B
:1013A0000A49FB791343DBB20B7009E0074B1B784A
:1013B000DAB2FB79DB43DBB204491340DBB20B70DA
:1013C00000BF0C37BD4680BC704700BF0D380240DF
:1013D00080B487B000AF0346FB710023FB6000239D
:1013E0007B610023FB74FB795B09DBB2FB60FB686C
:1013F000012B03D1124B1B687B6109E0FB68022BB8
:1014000003D10F4B1B6F7B6102E00D4B5B6F7B6168
:10141000FB7903F01F03FB607A69FB6822FA03F390
:1014200003F00103002B02D00123FB7401E0002331
:10143000FB74FB7C18461C37BD4680BC704700BF60
:101440000038024080B400AF044B5B6F034A43F0A6
:101450008073536700BFBD4680BC704700380240B0
:1014600080B485B000AF0346FB710023FB73084BCB
:10147000DA68FB791340002B02D00123FB7301E0F3
:101480000023FB73FB7B18461437BD4680BC7047B6
:101490000038024080B483B000AF0346FB71044AB9
:1014A000FB79137000BF0C37BD4680BC704700BF8E
:1014B0000E38024080B582B000AF78607B683B4A4E
:1014C000934208D101211020FFF78CFE002110204B
:1014D000FFF788FE65E07B68354A93420AD1012117
:1014E0004FF40030FFF760FE00214FF40030FFF7AB
:1014F0005BFE56E07B682F4A93420AD101214FF4EC
:101500008020FFF751FE00214FF48020FFF74CFEB2
:1015100047E07B68284A93420AD101214FF400201A
:10152000FFF742FE00214FF40020FFF73DFE38E0B8
:101530007B68224A93420AD101214FF48010FFF7C1
:1015400033FE00214FF48010FFF72EFE29E07B6868
:101550001B4A934208D101212020FFF743FE0021BE
:101560002020FFF73FFE1CE07B68164A93420AD119
:1015700001214FF08040FFF717FE00214FF080401F
:10158000FFF712FE0DE07B680F4A934209D101215B
:101590004FF00040FFF708FE00214FF00040FFF73A
:1015A00003FE00BF0837BD4680BD00BF00100140EC
:1015B0000044004000480040004C00400050004003
:1015C0000014014000780040007C004080B58AB0E3
:1015D00000AF7860396000237B6200233B62002308
:1015E000FB610023BB617B681B8A9BB27B627B6AC9
:1015F00023F440537B623B68DB881A467B6A1343C3
:101600007B627B6A9AB27B681A827B689B899BB2F9
:101610007B627B6A23F4B05323F00C037B623B684C
:101620009A883B681B8913439AB23B685B891343D2
:101630009BB21A467B6A13437B627B6A9AB27B68D1
:101640009A817B689B8A9BB27B627B6A23F440739E
:101650007B623B689B891A467B6A13437B627B6A89
:101660009AB27B689A8207F108031846FFF7FCFAE2
:101670007B68304A934203D07B682F4A934202D161
:101680007B693B6201E03B693B627B689B899BB263
:101690001BB2002B0CDA3A6A13469B0013449A00E3
:1016A0001A443B681B685B00B2FBF3F3FB610BE081
:1016B0003A6A13469B0013449A001A443B681B681D
:1016C0009B00B2FBF3F3FB61FB691C4AA2FB032303
:1016D0005B091B017B627B6A1B09642202FB03F32B
:1016E000FA69D31ABB617B689B899BB21BB2002B42
:1016F0000CDABB69DB003233104AA2FB03235B091F
:1017000003F007037A6A13437B620BE0BB691B019A
:1017100032330A4AA2FB03235B0903F00F037A6A00
:1017200013437B627B6A9AB27B681A8100BF2837B9
:10173000BD4680BD00100140001401401F85EB51E3
:1017400080B483B000AF78607B684FF416521A60A3
:101750007B6800229A807B680022DA807B68002206
:101760001A817B680C225A817B6800229A8100BF13
:101770000C37BD4680BC704780B485B000AF786040
:1017800039600023FB607B681B8A9BB2FB60FB68AF
:1017900023F47063FB603B681A883B685B881343E3
:1017A0009AB23B689B8813439AB23B68DB88134329
:1017B0009BB21A46FB681343FB60FB689AB27B68D6
:1017C0001A8200BF1437BD4680BC704780B483B016
:1017D00000AF78607B6800221A807B6800225A8004
:1017E0007B6800229A807B680022DA8000BF0C3779
:1017F000BD4680BC704780B483B000AF78600B46B4
:10180000FB70FB78002B08D07B689B899BB243F46C
:1018100000539AB27B689A8107E07B689B899BB2F0
:1018200023F400539AB27B689A8100BF0C37BD46FF
:1018300080BC704780B483B000AF78600B46FB700B
:101840007B681B8B9BB223F0FF039AB27B681A83E1
:101850007B681B8B9AB2FB789BB213439AB27B686E
:101860001A8300BF0C37BD4680BC704780B483B07C
:1018700000AF78600B46FB70FB78002B0AD07B68CA
:101880009B899BB26FEA43436FEA53439AB27B68EA
:101890009A8107E07B689B899BB2C3F30E039AB2DF
:1018A0007B689A8100BF0C37BD4680BC704780B40E
:1018B00083B000AF78600B46FB70FB78002B08D03C
:1018C0007B689B8A9BB243F400639AB27B689A82DE
:1018D00007E07B689B8A9BB223F400639AB27B6823
:1018E0009A8200BF0C37BD4680BC704780B483B07D
:1018F00000AF78600B467B807B88C3F308039AB205
:101900007B689A8000BF0C37BD4680BC704780B4AE
:1019100083B000AF78607B689B889BB2C3F30803F9
:101920009BB218460C37BD4680BC704780B483B06C
:1019300000AF78600B46FB707B681B8A9BB223F07C
:101940000F039AB27B681A827B681B8A9AB2FB7873
:101950009BB213439AB27B681A8200BF0C37BD4614
:1019600080BC704780B483B000AF78600B46FB70DA
:10197000FB78002B08D07B689B899BB243F0020365
:101980009AB27B689A8107E07B689B899BB223F0BF
:1019900002039AB27B689A8100BF0C37BD4680BCB7
:1019A000704780B483B000AF78600B467B807B6863
:1019B0009B899BB223F400639AB27B689A817B680F
:1019C0009B899AB27B8813439AB27B689A8100BF45
:1019D0000C37BD4680BC704780B483B000AF7860E0
:1019E0000B467B807B681B8A9BB223F020039AB254
:1019F0007B681A827B681B8A9AB27B8813439AB2EF
:101A00007B681A8200BF0C37BD4680BC704780B42B
:101A100083B000AF78600B46FB70FB78002B08D0DA
:101A20007B681B8A9BB243F480439AB27B681A821C
:101A300007E07B681B8A9BB223F480439AB27B68E1
:101A40001A8200BF0C37BD4680BC704780B483B09B
:101A500000AF78607B689B899BB243F001039AB228
:101A60007B689A8100BF0C37BD4680BC704780B44C
:101A700083B000AF78600B46FB70FB78002B08D07A
:101A80007B689B8A9BB243F008039AB27B689A8278
:101A900007E07B689B8A9BB223F008039AB27B68BD
:101AA0009A8200BF0C37BD4680BC704780B483B0BB
:101AB00000AF78600B46FB707B681B8B9BB2DBB280
:101AC0009AB27B681A837B681B8B9AB2FB789BB2B5
:101AD0001B029BB213439AB27B681A8300BF0C3778
:101AE000BD4680BC704780B483B000AF78600B46C1
:101AF000FB70FB78002B08D07B689B8A9BB243F07D
:101B000020039AB27B689A8207E07B689B8A9BB22B
:101B100023F020039AB27B689A8200BF0C37BD463F
:101B200080BC704780B483B000AF78600B46FB7018
:101B3000FB78002B08D07B689B8A9BB243F0100394
:101B40009AB27B689A8207E07B689B8A9BB223F0FB
:101B500010039AB27B689A8200BF0C37BD4680BCE6
:101B6000704780B483B000AF78600B467B807B68A1
:101B70009B8A9BB223F004039AB27B689A827B68AB
:101B80009B8A9AB27B8813439AB27B689A8200BF81
:101B90000C37BD4680BC704780B483B000AF78601E
:101BA0000B46FB70FB78002B08D07B689B8A9BB2AE
:101BB00043F002039AB27B689A8207E07B689B8AB3
:101BC0009BB223F002039AB27B689A8200BF0C3763
:101BD000BD4680BC704780B483B000AF78600B46D0
:101BE0007B8013467B707B78002B08D07B689B8AB8
:101BF0009AB27B8813439AB27B689A8209E07B6829
:101C00009B8A9AB27B88DB439BB213409AB27B6873
:101C10009A8200BF0C37BD4680BC704780B487B045
:101C200000AF78600B467B8013467B7000233B61DE
:101C30000023FB600023BB6000237B617B687B612A
:101C40007B88DBB25B09DBB23B617B8803F01F035F
:101C5000FB600122FB6802FA03F3BB603B69012BC6
:101C600003D17B690C337B6109E03B69022B03D113
:101C70007B6910337B6102E07B6914337B617B7885
:101C8000002B06D07B6919687B69BA680A431A6021
:101C900006E07B691968BB68DA437B690A401A6011
:101CA00000BF1C37BD4680BC704780B485B000AF14
:101CB00078600B467B800023FB737B681B889AB29D
:101CC0007B8813409BB2002B02D00123FB7301E001
:101CD0000023FB73FB7B18461437BD4680BC70475E
:101CE00080B483B000AF78600B467B807B88DB4399
:101CF0009AB27B681A8000BF0C37BD4680BC704723
:101D000080B487B000AF78600B467B800023FB6017
:101D100000237B610023BB600023FB747B88DBB264
:101D20005B09DBB2BB607B8803F01F037B61012290
:101D30007B6902FA03F37B61BB68012B07D17B68E7
:101D40009B899BB21A467B6913407B6111E0BB689B
:101D5000022B07D17B681B8A9BB21A467B69134012
:101D60007B6106E07B689B8A9BB21A467B691340C5
:101D70007B617B881B0A9BB2FB600122FB6802FA35
:101D800003F3FB607B681B889BB21A46FB68134019
:101D9000FB607B69002B05D0FB68002B02D0012380
:101DA000FB7401E00023FB74FB7C18461C37BD4626
:101DB00080BC704780B485B000AF78600B467B80F4
:101DC0000023FB810023BB817B881B0AFB81FB89ED
:101DD000012202FA03F3BB81BB89DB439AB27B6821
:101DE0001A8000BF1437BD4680BC704780B500AF75
:101DF000124B1B68114A43F0010313600F4B002282
:101E00009A600E4B1B680D4A23F0847323F48033D1
:101E100013600A4B0A4A5A60084B1B68074A23F4AE
:101E200080231360054B0022DA6000F08DF8054B2B
:101E30004FF000629A6000BF80BD00BF00380240D2
:101E40001030002400ED00E080B487B000AF002324
:101E50003B6100237B610223FB600023BB60022304
:101E60007B60344B9B6803F00C033B613B69082BA0
:101E700011D03B69082B44D83B69002B03D03B6948
:101E8000042B04D03DE02C4B2C4A1A603DE02A4B39
:101E90002B4A1A6039E0274B5B689B0D03F0010366
:101EA000BB60244B5B6803F03F037B60BB68002B87
:101EB0000CD0234A7B68B2FBF3F31E4A52689209A6
:101EC000C2F3080202FB03F37B610BE01B4A7B6851
:101ED000B2FBF3F3174A52689209C2F3080202FBFD
:101EE00003F37B61134B5B681B0C03F003030133AB
:101EF0005B00FB607A69FB68B2FBF3F30E4A136088
:101F000003E00D4B0D4A1A6000BF0A4B9B681B098A
:101F100003F00F030B4AD35CDBB23B61064B1A683C
:101F20003B6922FA03F3044A136000BF1C37BD4625
:101F300080BC704700380240100000200024F400EC
:101F400000127A001400002080B483B000AF002398
:101F50007B6000233B60354B1B68344A43F480337D
:101F60001360324B1B6803F400333B607B68013322
:101F70007B603B68002B03D17B68B3F5A04FF0D1A9
:101F80002A4B1B6803F40033002B02D001233B6073
:101F900001E000233B603B68012B42D1234B1B6CCB
:101FA000224A43F080531364214B1B68204A43F4B8
:101FB000404313601D4B1D4A9B6893601B4B9B68FD
:101FC0001A4A43F400439360184B9B68174A43F442
:101FD000A0539360154B174A5A60144B1B68134A61
:101FE00043F08073136000BF104B1B6803F0007355
:101FF000002BF9D0104B40F205721A600B4B9B6816
:102000000A4A23F003039360084B9B68074A43F096
:102010000203936000BF054B9B6803F00C03082B81
:10202000F9D100BF0C37BD4680BC70470038024074
:102030000070004019544007003C024000000000BE
:1020400090F800F06DE9024520F007016FF0000CF8
:1020500010F0070491F820F040F049804FF00004A0
:102060006FF00700D1E9002391F840F000F108007B
:1020700082FA4CF2A4FA8CF283FA4CF3A2FA8CF3B3
:102080004BBBD1E9022382FA4CF200F10800A4FA1A
:102090008CF283FA4CF3A2FA8CF3E3B9D1E904236E
:1020A00082FA4CF200F10800A4FA8CF283FA4CF3A5
:1020B000A2FA8CF37BB9D1E9062301F1200182FA5F
:1020C0004CF200F10800A4FA8CF283FA4CF3A2FA65
:1020D0008CF3002BC6D0002A04BF04301A4612BA73
:1020E000B2FA82F2FDE8024500EBD2007047D1E976
:1020F000002304F00305C4F100004FEAC50514F005
:10210000040F91F840F00CFA05F562EA05021CBFD5
:1021100063EA050362464FF00004A9E7002103E0EB
:102120000B4B5B58435004310A480B4B42189A4200
:10213000F6D30A4A02E0002342F8043B084B9A42D5
:10214000F9D3FFF753FE00F00FF8FEF709F97047D7
:10215000C82200080000002054040020540400207D
:1021600074040020FEE7000070B50D4E0D4D761B87
:10217000B61006D0002455F8043B01349847A64217
:10218000F9D1094E094D761B00F082F8B61006D041
:10219000002455F8043B01349847A642F9D170BD9C
:1021A000BC220008BC220008C4220008BC2200088F
:1021B000024B13B1024800F005B870470000000060
:1021C000D1210008002301461A46184600F01AB82B
:1021D00038B5084B084D5B1B9C1007D0043B1D44D1
:1021E000013C55F804399847002CF9D1BDE8384036
:1021F00000F054B8C8220008C4220008704700BF8D
:10220000704700BF2DE9F047DFF87CA00646DAF8FA
:10221000000098460F469146FFF7F0FF1B4B1B68E6
:10222000D3F8484124B365681F2D26DC5EB96B1CCA
:102230000235DAF80000636044F82570FFF7E0FF2C
:102240000020BDE8F08704EB85010123C1F88890E8
:10225000D4F88821AB401A43022EC4F88821C1F873
:102260000881E4D1D4F88C211343C4F88C31DEE723
:1022700003F5A674C3F84841D5E7DAF80000FFF784
:10228000BFFF4FF0FF30DCE750040020B822000809
:10229000F8B500BFF8BC08BC9E467047F8B500BF53
:0822A000F8BC08BC9E46704723
:1022A80048656C6C6F20576F726C64210D0A0000D2
:0422B80028000020DA
:0822BC00B1210008E501000852
:0422C400C10100084C
:1022C80000000000010203040102030406070809D4
:1022D800007A030A00000000000000000102030465
:1022E8000607080900000000000000001403002091
:1022F8007C030020E4030020000000000000000030
:1023080000000000000000000000000000000000C5
:1023180000000000000000000000000000000000B5
:1023280000000000000000000000000000000000A5
:102338000000000000000000000000000000000095
:102348000000000000000000000000000000000085
:102358000000000000000000000000000000000075
:102368000000000000000000000000000000000065
:102378000000000000000000000000000000000055
:102388000000000000000000000000000000000045
:1023980001000000000000000E33CDAB34126DE6E2
:1023A800ECDE05000B00000000000000000000004B
:1023B8000000000000000000000000000000000015
:1023C8000000000000000000000000000000000005
:1023D80000000000000000000000000000000000F5
:1023E80000000000000000000000000000000000E5
:042718007004002029
:040000050800211DB1
:00000001FF
